{
  "contractName": "Addition",
  "abi": [
    {
      "constant": true,
      "inputs": [],
      "name": "sum",
      "outputs": [
        {
          "internalType": "int256",
          "name": "",
          "type": "int256"
        }
      ],
      "payable": false,
      "stateMutability": "view",
      "type": "function"
    },
    {
      "constant": false,
      "inputs": [
        {
          "internalType": "int256",
          "name": "x",
          "type": "int256"
        },
        {
          "internalType": "int256",
          "name": "y",
          "type": "int256"
        }
      ],
      "name": "add",
      "outputs": [],
      "payable": false,
      "stateMutability": "nonpayable",
      "type": "function"
    }
  ],
  "bytecode": "0x60806040526000805534801561001457600080fd5b5060d0806100236000396000f3fe6080604052348015600f57600080fd5b506004361060325760003560e01c8063853255cc146037578063a5f3c23b146053575b600080fd5b603d6088565b6040518082815260200191505060405180910390f35b608660048036036040811015606757600080fd5b810190808035906020019092919080359060200190929190505050608e565b005b60005481565b808201600081905550505056fea265627a7a72315820f615444aee4b00ceeb4fdd6edc15bd1642d0af53c42a2e9bf1615fbde740d3b664736f6c634300050c0032",
  "source": "pragma solidity ^0.5.12;\ncontract Addition {\n  int public sum = 0;\n  function add (int x, int y) public {\n    sum = x + y;\n  }\n}\n",
  "sourcePath": "/home/kanav/projectstorm/14apr2019/drizzle-tutorial/contracts/Addition.sol",
  "compiler": {
    "name": "solc",
    "version": "0.5.12+commit.7709ece9.Emscripten.clang"
  },
  "schemaVersion": "3.0.20",
  "updatedAt": "2020-04-16T16:53:45.872Z",
  "networkType": "ethereum",
  "devdoc": {
    "methods": {}
  },
  "userdoc": {
    "methods": {}
  }
}